:020000040800F2
:1000000000500020BD0F000823040008250400084C
:1000100027040008290400082B0400080000000041
:100020000000000000000000000000002D04000897
:100030002F04000800000000310400083304000809
:10004000051000080510000805100008051000083C
:10005000051000080510000805100008051000082C
:10006000051000080510000805100008051000081C
:10007000051000080510000805100008051000080C
:1000800005100008051000080510000805100008FC
:1000900005100008051000080510000805100008EC
:1000A00005100008051000080510000805100008DC
:1000B0003D040008051000080510000805100008A0
:1000C00005100008051000080510000805100008BC
:1000D00005100008051000080510000805100008AC
:1000E00005100008051000080510000800000000B9
:1000F0000000000000000000000000000000000000
:0C01000000000000000000005FF808F1A3
:10010C0010B5054C237833B9044B13B10448AFF345
:10011C0000800123237010BD10000020000000009F
:10012C005010000808B5034B1BB103490348AFF34B
:10013C00008008BD000000001400002050100008D2
:10014C0010B586B0044600F013FE002302930A4B50
:10015C0004930123059301A902A800F0D5FE18B160
:10016C0000F020FE06B010BD2246002302490120FB
:10017C0000F056FEF4E700BF00FB010810B500F0DC
:10018C00EFFB00F0A5F800F0F1F800220221264860
:10019C0000F023FD254B1B889BB21A1F92B2032A39
:1001AC000AD8234A1380234800F09AF9002202212E
:1001BC001D4800F012FD19E01D4B04221A80F2E7D5
:1001CC0004201B4B1880FFF7BBFF26E0322C0DD907
:1001DC00174A138801339BB21380072B02D913469D
:1001EC0004221A80124B1888FFF7AAFF01210E482F
:1001FC0000F0ECFC0028F9D100F0D0FB0446012102
:10020C00094800F0E3FC0028F9D000F0C7FB041B00
:10021C00A4F6B833B3F5FA6FD2D341F287339C42CC
:10022C00D4D900F039FDE1E70008014000FB0108DA
:10023C00000000203000002008B50368B3F1804FA7
:10024C0000D008BD1C4B1B78012B0DD0022B25D0E8
:10025C00002BF6D100224FF40051184800F0BDFCE1
:10026C00154B01221A70ECE701224FF40051134890
:10027C0000F0B3FC124A138801339BB21380114A6D
:10028C001288934206D30C4B02221A700E4B00229A
:10029C001A70D6E7084B00221A70D2E70A4A137874
:1002AC000133DBB21370042BCBD90023044A138027
:1002BC00014A1370C5E700BF2E000020001001405A
:1002CC002C000020000000202F00002072B6FEE75A
:1002DC002DE9F04186B00024029403940494059413
:1002EC001F4B9A6942F010029A619A6902F010024F
:1002FC000092009A9A6942F004029A619B6903F099
:10030C0004030193019BDFF85C8001224FF4005140
:10031C00404600F062FC144E22460221304600F0AA
:10032C005CFC4FF4005302930125039504940227BF
:10033C00059702A9404600F037FB029503940495FB
:10034C0002A9304600F030FB029703950494059700
:10035C0002A9304600F028FB06B0BDE8F08100BFD2
:10036C0000100240001001400008014000B587B0A9
:10037C00002302930393049305930093019316486F
:10038C004FF08042026041F63F724260836040F25F
:10039C00E732C26003618023836100F0CBF990B92E
:1003AC004FF48053029302A90B4800F0FBF968B993
:1003BC000023009301936946074800F073FA40B993
:1003CC0007B05DF804FBFFF781FFE9E7FFF77EFF5D
:1003DC00EEE7FFF77BFFF3E7300000200368B3F193
:1003EC00804F00D0704700B583B003F50433DA6951
:1003FC0042F00102DA61DB6903F001030193019B16
:10040C00002211461C2000F001FC1C2000F036FCE0
:10041C0003B05DF804FBFEE7FEE7FEE7FEE7FEE750
:10042C0070477047704708B500F0ACFA08BD000083
:10043C0008B5024800F08CF808BD00BF3000002061
:10044C0082B00E4B9A6942F001029A619A6902F0ED
:10045C0001020092009ADA6942F08052DA61DB699B
:10046C0003F080530193019B054A536823F0E0632A
:10047C0043F00073536002B0704700BF001002409D
:10048C000000014010B4036A046A24F00104046201
:10049C00846924F0F00C4CEA021223F00A030B439B
:1004AC008261036210BC704710B4036A046A24F0C2
:1004BC0010040462846924F4704C4CEA023223F078
:1004CC00A00343EA01138261036210BC7047836886
:1004DC0023F070030B4343F0070383607047000065
:1004EC0090F83D30DBB2012B27D1022380F83D3050
:1004FC000268D36843F00103D3600368114A934246
:10050C0010D0B3F1804F0DD0A2F59432934209D0A4
:10051C0002F58062934205D01A6842F001021A601B
:10052C00002070479A6802F00702062A07D01A6862
:10053C0042F001021A600020704701207047002031
:10054C00704700BF002C01407047704770477047E0
:10055C0070B504460368DE681D6915F0020F10D0F3
:10056C0016F0020F0DD06FF002021A61012303770F
:10057C0003689B6913F0030F5ED0FFF7E6FF0023BF
:10058C00237715F0040F12D016F0040F0FD0236848
:10059C006FF004021A610223237723689B6913F41A
:1005AC00407F4FD02046FFF7D0FF0023237715F074
:1005BC00080F12D016F0080F0FD023686FF0080246
:1005CC001A61042323772368DB6913F0030F40D0EF
:1005DC002046FFF7BAFF0023237715F0100F12D037
:1005EC0016F0100F0FD023686FF010021A61082359
:1005FC0023772368DB6913F4407F31D02046FFF763
:10060C00A4FF0023237715F0010F02D016F0010F81
:10061C002DD115F0800F02D016F0800F2FD115F0D0
:10062C00400F02D016F0400F31D115F0200F02D040
:10063C0016F0200F33D170BDFFF786FF2046FFF771
:10064C0085FF9CE72046FFF77FFF2046FFF77EFFE4
:10065C00ABE72046FFF778FF2046FFF777FFBAE7B6
:10066C002046FFF771FF2046FFF770FFC9E72368AC
:10067C006FF001021A612046FFF7DEFDC9E723681F
:10068C006FF080021A61204600F043F9C7E7236837
:10069C006FF040021A612046FFF759FFC5E7236847
:1006AC006FF020021A61204600F032F9C3E7000017
:1006BC0003681F4A90420AD0B0F1804F07D0A2F5D0
:1006CC009432904203D002F58062904203D123F021
:1006DC0070034A681343164A90420AD0B0F1804F17
:1006EC0007D0A2F59432904203D002F5806290427A
:1006FC0003D123F44073CA68134323F080034A697F
:10070C00134303608B68C3620B688362084B984287
:10071C000AD001234361036913F0010F03D003696D
:10072C0023F00103036170470B690363F1E700BF1A
:10073C00002C014040B310B5044690F83D30F3B1A5
:10074C00022384F83D30214651F8040BFFF7B0FF2B
:10075C00012384F8463084F83E3084F83F3084F826
:10076C00403084F8413084F8423084F8433084F8C7
:10077C00443084F8453084F83D30002010BD80F8BA
:10078C003C30FFF72BFEDBE70120704710B4846888
:10079C0024F47F4C42EA03220A4342EA0C028260B0
:1007AC0010BC704790F83C30012B78D010B5044643
:1007BC00012380F83C30022380F83D3002689368B6
:1007CC0023F47F4323F0770393600B68602B4CD0AA
:1007DC0029D8402B54D00CD9502B22D1CA68496847
:1007EC000068FFF74FFE50212068FFF770FE0020D5
:1007FC0005E0202B0DD009D9302B0AD00120012384
:10080C0084F83D30002384F83C3010BD0BB1102B24
:10081C0005D119462068FFF75AFE0020EFE70120AA
:10082C00EDE70120EBE7B3F5805F34D0B3F5005F63
:10083C000CD1CB684A6889680068FFF7A7FF22686B
:10084C00936843F4804393600020D8E7702B24D145
:10085C00CB684A6889680068FFF798FF226893683C
:10086C0043F0770393600020C9E7CA6849680068C1
:10087C00FFF71AFE60212068FFF729FE0020BEE773
:10088C00CA6849680068FFF7FDFD40212068FFF742
:10089C001EFE0020B3E70020B1E70120AFE70220E5
:1008AC007047000090F83C30012B2CD010B4012381
:1008BC0080F83C30022380F83D3003685A689C680D
:1008CC0022F0700C0A6842EA0C025A6003680F4A64
:1008DC0093420AD0B3F1804F07D0A2F594329342E1
:1008EC0003D002F58062934204D124F080044A685C
:1008FC0014439C60012380F83D30002380F83C3089
:10090C00184610BC70470220704700BF002C0140F5
:10091C007047704710B504460E4B18784FF47A7335
:10092C00B3FBF0F30C4A1068B0FBF3F000F0C6F91F
:10093C0068B90F2C01D901200AE0002221464FF0A2
:10094C00FF3000F063F9054B1C60002000E0012033
:10095C0010BD00BF02000020080000200400002091
:10096C0008B5074A136843F010031360032000F026
:10097C003BF90F20FFF7CEFFFFF762FD002008BD0B
:10098C0000200240034A1168034B1B780B44136090
:10099C00704700BF7800002002000020014B18684F
:1009AC00704700BF7800002070B582B00024A446C8
:1009BC00A6E0804DAA4210D007D97F4DAA420CD098
:1009CC0005F58035AA4208D013E0A5F58015AA429A
:1009DC0003D005F57025AA4207D18A68002A58D0A1
:1009EC00012A51D04361082403E0A5F58015AA42E1
:1009FC00F3D0BEF1FF0F4ED80646BEF1FF0F4CD818
:100A0C004FEA8C0233680F25954023EA050304FA5C
:100A1C0002F2134333604B6813F0805F6ED0674B68
:100A2C009A6942F001029A619B6903F001030193F8
:100A3C00019B4FEA9C02951C614B53F825600CF00E
:100A4C0003039D000F23AB4026EA03065D4B98423F
:100A5C0029D003F58063984200F08E8003F5806303
:100A6C00984200F08B8003F58063984219D00423E0
:100A7C001AE0CC68BDE7CC680434BAE7CC6808341B
:100A8C00B7E7CC680C34B4E703610824B1E7002461
:100A9C00AFE70424ADE7061DAFE7ACF10802920006
:100AAC00B0E7032300E00023AB4033430232444D54
:100ABC0045F822304B6813F4801F61D0424A93688A
:100ACC0043EA0E0393604B6813F4001F5ED03E4A5A
:100ADC00D36843EA0E03D3604B6813F4003F5BD03A
:100AEC00394A536843EA0E0353604B6813F4803F52
:100AFC0058D0354A136843EA0E0313600CF1010C0D
:100B0C000A6832FA0CF353D0012303FA0CF302EA0D
:100B1C00030E33EA0202F1D14A68122A3FF649AFBA
:100B2C00122A3FF666AF01A555F822F0E709000836
:100B3C007F0A0008890A00089B0A0008FF090008C0
:100B4C00FF090008FF090008FF090008FF09000859
:100B5C00FF090008FF090008FF090008FF09000849
:100B6C00FF090008FF090008FF090008FF09000839
:100B7C00830A00088F0A0008012395E7022393E7F4
:100B8C00114A936823EA0E0393609CE70E4AD368DC
:100B9C0023EA0E03D3609FE70B4A536823EA0E0344
:100BAC005360A2E7084A136823EA0E031360A5E713
:100BBC0002B070BD00002210000031100010024085
:100BCC000000014000080140000401408368194204
:100BDC0001D001207047002070470AB101617047B5
:100BEC000904016170470000074AD36823F4E063ED
:100BFC001B041B0C000200F4E060034343F0BF63D2
:100C0C0043F40033D360704700ED00E000B5194B9E
:100C1C00DB68C3F30223C3F1070CBCF1040F28BF3C
:100C2C004FF0040C03F1040EBEF1060F18D9033B70
:100C3C004FF0FF3E0EFA0CFC21EA0C0199400EFA23
:100C4C0003F322EA0303194300280BDB0901C9B2A1
:100C5C0000F1604000F5614080F800135DF804FB82
:100C6C000023E5E700F00F000901C9B2024B19544B
:100C7C00F4E700BF00ED00E014ED00E0002807DB16
:100C8C0000F01F02400901239340024A42F8203031
:100C9C00704700BF00E100E0BFF34F8F0549CA6801
:100CAC0002F4E062044B1343CB60BFF34F8F00BFE1
:100CBC00FDE700BF00ED00E00400FA050138B0F1DB
:100CCC00807F0BD24FF0E0235861054AF02182F867
:100CDC0023100020986107221A6170470120704789
:100CEC0000ED00E0044B0022DA61044A136943F082
:100CFC000103136101807047800000200020024036
:100D0C00194BDB6813F0100305D0184AD36943F074
:100D1C000203D3611023144AD26812F0040F06D0D8
:100D2C001249CA6942F00102CA6143F004030E4A37
:100D3C00D26912F0010F09D00C49CA6942F00402C1
:100D4C00CA610949CA6922F00102CA6140F2011262
:100D5C00934202D0044AD3607047034AD36923F00C
:100D6C000103D361704700BF0020024080000020C7
:100D7C000A4B1B6913F0800F0BD0084B084A5A60C2
:100D8C0002F188325A601B6913F0800F03D10020E6
:100D9C007047002070470120704700BF00200240C0
:100DAC0023016745034A136943F080031361002054
:100DBC00704700BF0020024038B50446FFF7EEFD37
:100DCC000546164BDB6813F0010F0AD0B4F1FF3F58
:100DDC00F7D024B1FFF7E2FD401BA042F1D903206C
:100DEC001BE00E4BDB6813F0200F02D00B4B2022C4
:100DFC00DA600A4BDB6813F0100F0BD1074BDB6981
:100E0C0013F0010F06D1054BDB6813F0040F01D171
:100E1C00002002E0FFF774FF012038BD00200240E3
:100E2C002DE9F8431E46244B1B7E012B41D0044672
:100E3C000F469046204B01221A764CF25030FFF7A9
:100E4C00BBFF034678BB012C08D0022C03D04FF01B
:100E5C0004091C4607E04FF00209FAE74FF00109BC
:100E6C00F7E70134E4B24C451DD22101C1F1200257
:100E7C00A1F1200328FA01F106FA02F2114326FA35
:100E8C0003F3194389B207EB4400FFF72BFF4CF235
:100E9C005030FFF791FF094B1D6925F001051D61CD
:100EAC0003460028DDD0044A002111761846BDE81F
:100EBC00F8830223FAE700BF8000002000200240E4
:100ECC00064B0022DA61064B1A6942F004021A61E1
:100EDC001A6942F040021A61704700BF800000207E
:100EEC0000200240064B0022DA61064B1A6942F0E0
:100EFC0002021A6158611A6942F040021A61704785
:100F0C008000002000200240264B1B7E012B46D087
:100F1C0070B505460E46234B01221A760368022B48
:100F2C0020D04CF25030FFF747FF90BB4FF0FF330F
:100F3C003360AC680121EA68AB6803EB8223A342FF
:100F4C0028D92046FFF7CEFF4CF25030FFF734FF84
:100F5C00154A136923F0020313610146B8B904F56D
:100F6C008064E8E74CF25030FFF726FF08B101210E
:100F7C0010E00120FFF7A4FF4CF25030FFF71CFFEC
:100F8C000146094A136923F00403136102E034603B
:100F9C0000E00121034B00221A76084670BD0221A5
:100FAC000846704780000020002002407047000077
:100FBC00FFF7FCFF0B480C490C4A002302E0D45805
:100FCC00C4500433C4188C42F9D3094A094C002389
:100FDC0001E013600432A242FBD300F00FF8FFF7DC
:100FEC00CDF87047000000200C00002070100008A5
:100FFC0010000020A0000020FEE7000070B50026C5
:10100C000C4D0D4C641BA410A64209D100F01AF82B
:10101C0000260A4D0A4C641BA410A64205D170BDD3
:10102C0055F8043B98470136EEE755F8043B9847D2
:10103C000136F2E768100008681000086810000814
:10104C006C100008F8B500BFF8BC08BC9E46704791
:0C105C00F8B500BFF8BC08BC9E46704709
:04106800310100084A
:04106C000D0100086A
:0C107000070001001000000000127A00D0
:0400000508000FBD23
:00000001FF
